{
  "address": "0x1AF927464e486Ae98F75A65ac756AAD9EcA45580",
  "abi": [
    {
      "inputs": [],
      "stateMutability": "nonpayable",
      "type": "constructor"
    },
    {
      "anonymous": false,
      "inputs": [
        {
          "indexed": false,
          "internalType": "uint8",
          "name": "version",
          "type": "uint8"
        }
      ],
      "name": "Initialized",
      "type": "event"
    },
    {
      "anonymous": false,
      "inputs": [
        {
          "indexed": false,
          "internalType": "address",
          "name": "account",
          "type": "address"
        },
        {
          "indexed": false,
          "internalType": "string",
          "name": "contentId",
          "type": "string"
        }
      ],
      "name": "Remove",
      "type": "event"
    },
    {
      "anonymous": false,
      "inputs": [
        {
          "indexed": false,
          "internalType": "address",
          "name": "account",
          "type": "address"
        },
        {
          "indexed": false,
          "internalType": "string",
          "name": "contentId",
          "type": "string"
        },
        {
          "indexed": false,
          "internalType": "uint256",
          "name": "size",
          "type": "uint256"
        },
        {
          "indexed": false,
          "internalType": "uint256",
          "name": "expiration",
          "type": "uint256"
        }
      ],
      "name": "Upset",
      "type": "event"
    },
    {
      "inputs": [
        {
          "internalType": "address",
          "name": "account",
          "type": "address"
        },
        {
          "internalType": "string",
          "name": "contentId",
          "type": "string"
        }
      ],
      "name": "exists",
      "outputs": [
        {
          "internalType": "bool",
          "name": "",
          "type": "bool"
        }
      ],
      "stateMutability": "view",
      "type": "function"
    },
    {
      "inputs": [
        {
          "internalType": "address",
          "name": "account",
          "type": "address"
        },
        {
          "internalType": "string",
          "name": "contentId",
          "type": "string"
        }
      ],
      "name": "expiredAt",
      "outputs": [
        {
          "internalType": "uint256",
          "name": "",
          "type": "uint256"
        }
      ],
      "stateMutability": "view",
      "type": "function"
    },
    {
      "inputs": [
        {
          "internalType": "address",
          "name": "account",
          "type": "address"
        },
        {
          "internalType": "string",
          "name": "contentId",
          "type": "string"
        }
      ],
      "name": "getExpiration",
      "outputs": [
        {
          "internalType": "uint256",
          "name": "",
          "type": "uint256"
        }
      ],
      "stateMutability": "view",
      "type": "function"
    },
    {
      "inputs": [
        {
          "internalType": "address",
          "name": "account",
          "type": "address"
        },
        {
          "internalType": "string",
          "name": "contentId",
          "type": "string"
        }
      ],
      "name": "getSize",
      "outputs": [
        {
          "internalType": "uint256",
          "name": "",
          "type": "uint256"
        }
      ],
      "stateMutability": "view",
      "type": "function"
    },
    {
      "inputs": [
        {
          "internalType": "address",
          "name": "account",
          "type": "address"
        },
        {
          "internalType": "string",
          "name": "contentId",
          "type": "string"
        }
      ],
      "name": "getupdateAt",
      "outputs": [
        {
          "internalType": "uint256",
          "name": "",
          "type": "uint256"
        }
      ],
      "stateMutability": "view",
      "type": "function"
    },
    {
      "inputs": [
        {
          "internalType": "contract IPriceAdaptor",
          "name": "_priceAdaptor",
          "type": "address"
        },
        {
          "internalType": "contract IERC20",
          "name": "token",
          "type": "address"
        },
        {
          "internalType": "uint256",
          "name": "decimals",
          "type": "uint256"
        }
      ],
      "name": "initialize",
      "outputs": [],
      "stateMutability": "nonpayable",
      "type": "function"
    },
    {
      "inputs": [
        {
          "internalType": "contract IERC20",
          "name": "token",
          "type": "address"
        },
        {
          "internalType": "string",
          "name": "contentId",
          "type": "string"
        },
        {
          "internalType": "uint256",
          "name": "size",
          "type": "uint256"
        },
        {
          "internalType": "uint256",
          "name": "expiration",
          "type": "uint256"
        }
      ],
      "name": "insert",
      "outputs": [],
      "stateMutability": "nonpayable",
      "type": "function"
    },
    {
      "inputs": [
        {
          "internalType": "contract IERC20",
          "name": "token",
          "type": "address"
        },
        {
          "internalType": "string[]",
          "name": "contentIds",
          "type": "string[]"
        },
        {
          "internalType": "uint256[]",
          "name": "sizes",
          "type": "uint256[]"
        },
        {
          "internalType": "uint256[]",
          "name": "expirations",
          "type": "uint256[]"
        }
      ],
      "name": "insertMult",
      "outputs": [],
      "stateMutability": "nonpayable",
      "type": "function"
    },
    {
      "inputs": [
        {
          "internalType": "address",
          "name": "account",
          "type": "address"
        },
        {
          "internalType": "string",
          "name": "contentId",
          "type": "string"
        }
      ],
      "name": "isExpired",
      "outputs": [
        {
          "internalType": "bool",
          "name": "",
          "type": "bool"
        }
      ],
      "stateMutability": "view",
      "type": "function"
    },
    {
      "inputs": [
        {
          "internalType": "contract IERC20",
          "name": "token",
          "type": "address"
        },
        {
          "internalType": "uint256",
          "name": "value",
          "type": "uint256"
        }
      ],
      "name": "matchValueToDecimals",
      "outputs": [
        {
          "internalType": "uint256",
          "name": "",
          "type": "uint256"
        }
      ],
      "stateMutability": "view",
      "type": "function"
    },
    {
      "inputs": [
        {
          "internalType": "address",
          "name": "",
          "type": "address"
        },
        {
          "internalType": "string",
          "name": "",
          "type": "string"
        }
      ],
      "name": "metas",
      "outputs": [
        {
          "internalType": "uint256",
          "name": "size",
          "type": "uint256"
        },
        {
          "internalType": "uint256",
          "name": "expiration",
          "type": "uint256"
        },
        {
          "internalType": "uint256",
          "name": "updateAt",
          "type": "uint256"
        }
      ],
      "stateMutability": "view",
      "type": "function"
    },
    {
      "inputs": [],
      "name": "priceAdaptor",
      "outputs": [
        {
          "internalType": "contract IPriceAdaptor",
          "name": "",
          "type": "address"
        }
      ],
      "stateMutability": "view",
      "type": "function"
    },
    {
      "inputs": [
        {
          "internalType": "string",
          "name": "contentId",
          "type": "string"
        }
      ],
      "name": "remove",
      "outputs": [],
      "stateMutability": "nonpayable",
      "type": "function"
    },
    {
      "inputs": [
        {
          "internalType": "string[]",
          "name": "contentIds",
          "type": "string[]"
        }
      ],
      "name": "removeMult",
      "outputs": [],
      "stateMutability": "nonpayable",
      "type": "function"
    },
    {
      "inputs": [
        {
          "internalType": "contract IERC20",
          "name": "",
          "type": "address"
        }
      ],
      "name": "tokenDecimals",
      "outputs": [
        {
          "internalType": "uint256",
          "name": "",
          "type": "uint256"
        }
      ],
      "stateMutability": "view",
      "type": "function"
    },
    {
      "inputs": [
        {
          "internalType": "contract IERC20",
          "name": "token",
          "type": "address"
        }
      ],
      "name": "tokenExists",
      "outputs": [
        {
          "internalType": "bool",
          "name": "",
          "type": "bool"
        }
      ],
      "stateMutability": "view",
      "type": "function"
    },
    {
      "inputs": [],
      "name": "tokenLength",
      "outputs": [
        {
          "internalType": "uint256",
          "name": "",
          "type": "uint256"
        }
      ],
      "stateMutability": "view",
      "type": "function"
    },
    {
      "inputs": [
        {
          "internalType": "uint256",
          "name": "",
          "type": "uint256"
        }
      ],
      "name": "tokens",
      "outputs": [
        {
          "internalType": "contract IERC20",
          "name": "",
          "type": "address"
        }
      ],
      "stateMutability": "view",
      "type": "function"
    },
    {
      "inputs": [
        {
          "internalType": "contract IERC20",
          "name": "token",
          "type": "address"
        },
        {
          "internalType": "string",
          "name": "contentId",
          "type": "string"
        },
        {
          "internalType": "uint256",
          "name": "extraExpiration",
          "type": "uint256"
        }
      ],
      "name": "updateExpiration",
      "outputs": [],
      "stateMutability": "nonpayable",
      "type": "function"
    },
    {
      "inputs": [
        {
          "internalType": "contract IERC20",
          "name": "token",
          "type": "address"
        },
        {
          "internalType": "string[]",
          "name": "contentIds",
          "type": "string[]"
        },
        {
          "internalType": "uint256[]",
          "name": "extraExpirations",
          "type": "uint256[]"
        }
      ],
      "name": "updateExpirationMult",
      "outputs": [],
      "stateMutability": "nonpayable",
      "type": "function"
    },
    {
      "inputs": [
        {
          "internalType": "contract IERC20",
          "name": "token",
          "type": "address"
        },
        {
          "internalType": "string",
          "name": "contentId",
          "type": "string"
        },
        {
          "internalType": "uint256",
          "name": "extraSize",
          "type": "uint256"
        }
      ],
      "name": "updateSize",
      "outputs": [],
      "stateMutability": "nonpayable",
      "type": "function"
    },
    {
      "inputs": [
        {
          "internalType": "contract IERC20",
          "name": "token",
          "type": "address"
        },
        {
          "internalType": "string[]",
          "name": "contentIds",
          "type": "string[]"
        },
        {
          "internalType": "uint256[]",
          "name": "extraSizes",
          "type": "uint256[]"
        }
      ],
      "name": "updateSizeMult",
      "outputs": [],
      "stateMutability": "nonpayable",
      "type": "function"
    }
  ],
  "transactionHash": "0xdb45aba93a6f3c0fecd3d93d3204a21e20f8705d96eec9f5ab4b26ee2532a9fb",
  "args": [],
  "numDeployments": 1,
  "solcInputHash": "b4680b715084fdeffd8390179fbb2d2b",
  "bytecode": "0x60806040523480156200001157600080fd5b50600054610100900460ff1615808015620000335750600054600160ff909116105b8062000063575062000050306200010460201b620009321760201c565b15801562000063575060005460ff166001145b6200008b5760405162461bcd60e51b8152600401620000829062000113565b60405180910390fd5b6000805460ff191660011790558015620000af576000805461ff0019166101001790555b8015620000fd576000805461ff00191690556040517f7f26b83ff96e1f2b6a682f133852f6798a09c465da95921460cefb384740249890620000f49060019062000189565b60405180910390a15b5062000199565b6001600160a01b03163b151590565b602080825281016200016681602e81527f496e697469616c697a61626c653a20636f6e747261637420697320616c72656160208201526d191e481a5b9a5d1a585b1a5e995960921b604082015260600190565b92915050565b600060ff821662000166565b62000183816200016c565b82525050565b6020810162000166828462000178565b611f7f80620001a96000396000f3fe608060405234801561001057600080fd5b50600436106101425760003560e01c8063775a4cb0116100b8578063934e5b891161007c578063934e5b89146103035780639caf681d14610316578063b31bdec414610329578063b33f78ca1461033c578063d8999bdf14610367578063de66341e1461037a57600080fd5b8063775a4cb01461028a57806380599e4b146102aa57806383e89197146102bd578063877e71d2146102d05780638ee573ac146102e357600080fd5b80631d124ece1161010a5780631d124ece146101d1578063298468a7146101e457806337e491c9146101f75780634f64b2be1461020a57806359779f191461021d57806375190dd11461023057600080fd5b806305ee43f614610147578063064146181461015c57806309be8e1d1461016f5780631266cc06146101985780631794bb3c146101be575b600080fd5b61015a610155366004611381565b610382565b005b61015a61016a366004611407565b6103c7565b61018261017d366004611499565b6103da565b60405161018f91906114f8565b60405180910390f35b6000546101b1906201000090046001600160a01b031681565b60405161018f9190611548565b61015a6101cc366004611556565b610419565b6101826101df366004611499565b610517565b61015a6101f236600461161b565b610557565b610182610205366004611499565b610616565b6101b16102183660046116c1565b6106a6565b61015a61022b3660046116e2565b6106d0565b61027b61023e366004611499565b6003602090815260009283526040909220815180830184018051928152908401929093019190912091528054600182015460029092015490919083565b60405161018f93929190611731565b61029d610298366004611499565b6106e1565b60405161018f9190611761565b61015a6102b836600461176f565b610723565b6101826102cb3660046117a9565b610730565b61015a6102de3660046117dc565b6107d6565b6101826102f1366004611856565b60026020526000908152604090205481565b61015a6103113660046117dc565b610853565b61015a6103243660046116e2565b6108d0565b610182610337366004611499565b6108dc565b61029d61034a366004611856565b6001600160a01b0316600090815260026020526040902054151590565b61029d610375366004611499565b61091c565b600154610182565b60005b81518110156103c3576103b1338383815181106103a4576103a4611877565b6020026020010151610941565b806103bb816118a3565b915050610385565b5050565b6103d484338585856109ea565b50505050565b6001600160a01b038216600090815260036020526040808220905161040090849061190c565b9081526040519081900360200190205490505b92915050565b600054610100900460ff16158080156104395750600054600160ff909116105b806104535750303b158015610453575060005460ff166001145b6104785760405162461bcd60e51b815260040161046f90611966565b60405180910390fd5b6000805460ff19166001179055801561049b576000805461ff0019166101001790555b6000805462010000600160b01b031916620100006001600160a01b038716021790556104c78383610c7b565b80156103d4576000805461ff00191690556040517f7f26b83ff96e1f2b6a682f133852f6798a09c465da95921460cefb3847402498906105099060019061198a565b60405180910390a150505050565b6001600160a01b038216600090815260036020526040808220905161053d90849061190c565b908152602001604051809103902060020154905092915050565b81518351146105785760405162461bcd60e51b815260040161046f906119e1565b80518351146105995760405162461bcd60e51b815260040161046f906119e1565b60005b835181101561060f576105fd85338684815181106105bc576105bc611877565b60200260200101518685815181106105d6576105d6611877565b60200260200101518686815181106105f0576105f0611877565b60200260200101516109ea565b80610607816118a3565b91505061059c565b5050505050565b6001600160a01b038216600090815260036020526040808220905161069f919061064190859061190c565b90815260200160405180910390206002015460036000866001600160a01b03166001600160a01b0316815260200190815260200160002084604051610686919061190c565b9081526040519081900360200190206001015490610d10565b9392505050565b600181815481106106b657600080fd5b6000918252602090912001546001600160a01b0316905081565b6106dc83338484610d1c565b505050565b6001600160a01b038216600090815260036020526040808220905182919061070a90859061190c565b9081526040519081900360200190205411905092915050565b61072d3382610941565b50565b6001600160a01b0382166000908152600260205260408120546107655760405162461bcd60e51b815260040161046f90611a1c565b6001600160a01b038316600090815260026020526040902054601e81106107ae576107a6610794601e83611a2c565b61079f90600a611b51565b8490610f62565b915050610413565b6107ce6107bc82601e611a2c565b6107c790600a611b51565b8490610f6e565b949350505050565b80518251146107f75760405162461bcd60e51b815260040161046f906119e1565b60005b82518110156103d457610841843385848151811061081a5761081a611877565b602002602001015185858151811061083457610834611877565b6020026020010151610d1c565b8061084b816118a3565b9150506107fa565b80518251146108745760405162461bcd60e51b815260040161046f906119e1565b60005b82518110156103d4576108be843385848151811061089757610897611877565b60200260200101518585815181106108b1576108b1611877565b6020026020010151610f7a565b806108c8816118a3565b915050610877565b6106dc83338484610f7a565b6001600160a01b038216600090815260036020526040808220905161090290849061190c565b908152602001604051809103902060010154905092915050565b6000426109298484610616565b10159392505050565b6001600160a01b03163b151590565b61094b82826106e1565b6109675760405162461bcd60e51b815260040161046f90611ba5565b6001600160a01b03821660009081526003602052604090819020905161098e90839061190c565b9081526040519081900360200181206000808255600182018190556002909101557fafb58637702ac59f4ec776bf00731c6db5de2befbf39779a2c5be4922201bb0e906109de9084908490611bf0565b60405180910390a15050565b6001600160a01b038516600090815260026020526040902054610a1f5760405162461bcd60e51b815260040161046f90611c51565b610a2984846106e1565b1580610a3a5750610a3a848461091c565b610a565760405162461bcd60e51b815260040161046f90611ca1565b60008211610a765760405162461bcd60e51b815260040161046f90611ce5565b60008111610a965760405162461bcd60e51b815260040161046f90611d37565b6000805460405163350cf36f60e11b8152620100009091046001600160a01b031690636a19e6de90610ace9086908690600401611d47565b60206040518083038186803b158015610ae657600080fd5b505afa158015610afa573d6000803e3d6000fd5b505050506040513d601f19601f82011682018060405250810190610b1e9190611d6d565b9050610b2a8682610730565b6040516323b872dd60e01b81529091506001600160a01b038716906323b872dd90610b5d90889030908690600401611d8e565b602060405180830381600087803b158015610b7757600080fd5b505af1158015610b8b573d6000803e3d6000fd5b505050506040513d601f19601f82011682018060405250810190610baf9190611dbc565b5060405180606001604052808481526020018381526020014281525060036000876001600160a01b03166001600160a01b0316815260200190815260200160002085604051610bfe919061190c565b90815260200160405180910390206000820151816000015560208201518160010155604082015181600201559050507f4471eb362c285c1ce8c27b53fa652555ee6b39467a3108f2024529852e38accf858585610c5b8989610616565b604051610c6b9493929190611ddd565b60405180910390a1505050505050565b6001600160a01b03821660009081526002602052604090205415610cb15760405162461bcd60e51b815260040161046f90611e56565b6001600160a01b0390911660008181526002602052604081209290925560018054808201825592527fb10e2d527612073b26eecdfd717e6a320cf44b4afac2b0732d9fcbe2b7fa0cf690910180546001600160a01b0319169091179055565b600061069f8284611e66565b6001600160a01b038416600090815260026020526040902054610d515760405162461bcd60e51b815260040161046f90611c51565b610d5b83836106e1565b8015610d6e5750610d6c838361091c565b155b610d8a5760405162461bcd60e51b815260040161046f90611ba5565b6000805460405163350cf36f60e11b8152620100009091046001600160a01b031690636a19e6de90610dc3908590600190600401611e93565b60206040518083038186803b158015610ddb57600080fd5b505afa158015610def573d6000803e3d6000fd5b505050506040513d601f19601f82011682018060405250810190610e139190611d6d565b9050610e1f8582610730565b6040516323b872dd60e01b81529091506001600160a01b038616906323b872dd90610e5290879030908690600401611d8e565b602060405180830381600087803b158015610e6c57600080fd5b505af1158015610e80573d6000803e3d6000fd5b505050506040513d601f19601f82011682018060405250810190610ea49190611dbc565b506001600160a01b038416600090815260036020526040908190209051610ed291849161068690879061190c565b6001600160a01b038516600090815260036020526040908190209051610ef990869061190c565b908152604051908190036020019020600101557f4471eb362c285c1ce8c27b53fa652555ee6b39467a3108f2024529852e38accf8484610f3982826103da565b610f438888610616565b604051610f539493929190611ddd565b60405180910390a15050505050565b600061069f8284611eae565b600061069f8284611ee3565b6001600160a01b038416600090815260026020526040902054610faf5760405162461bcd60e51b815260040161046f90611c51565b610fb983836106e1565b8015610fcc5750610fca838361091c565b155b610fe85760405162461bcd60e51b815260040161046f90611ba5565b600081116110085760405162461bcd60e51b815260040161046f90611f39565b6000805460405163350cf36f60e11b8152620100009091046001600160a01b031690636a19e6de90611041908590600190600401611e93565b60206040518083038186803b15801561105957600080fd5b505afa15801561106d573d6000803e3d6000fd5b505050506040513d601f19601f820116820180604052508101906110919190611d6d565b905061109d8582610730565b6040516323b872dd60e01b81529091506001600160a01b038616906323b872dd906110d090879030908690600401611d8e565b602060405180830381600087803b1580156110ea57600080fd5b505af11580156110fe573d6000803e3d6000fd5b505050506040513d601f19601f820116820180604052508101906111229190611dbc565b506001600160a01b03841660009081526003602052604090819020905161116691849161115090879061190c565b9081526040519081900360200190205490610d10565b6001600160a01b03851660009081526003602052604090819020905161118d90869061190c565b908152604051908190036020019020557f4471eb362c285c1ce8c27b53fa652555ee6b39467a3108f2024529852e38accf8484610f3982826103da565b634e487b7160e01b600052604160045260246000fd5b601f19601f83011681018181106001600160401b0382111715611205576112056111ca565b6040525050565b600061121760405190565b905061122382826111e0565b919050565b60006001600160401b03821115611241576112416111ca565b5060209081020190565b60006001600160401b03821115611264576112646111ca565b601f19601f83011660200192915050565b82818337506000910152565b600061129461128f8461124b565b61120c565b9050828152602081018484840111156112af576112af600080fd5b6112ba848285611275565b509392505050565b600082601f8301126112d6576112d6600080fd5b81356107ce848260208601611281565b60006112f461128f84611228565b8381529050602080820190840283018581111561131357611313600080fd5b835b818110156113535780356001600160401b0381111561133657611336600080fd5b80860161134389826112c2565b8552505060209283019201611315565b5050509392505050565b600082601f83011261137157611371600080fd5b81356107ce8482602086016112e6565b60006020828403121561139657611396600080fd5b81356001600160401b038111156113af576113af600080fd5b6107ce8482850161135d565b60006001600160a01b038216610413565b6000610413826113bb565b6113e0816113cc565b811461072d57600080fd5b8035610413816113d7565b806113e0565b8035610413816113f6565b6000806000806080858703121561142057611420600080fd5b600061142c87876113eb565b94505060208501356001600160401b0381111561144b5761144b600080fd5b611457878288016112c2565b9350506040611468878288016113fc565b9250506060611479878288016113fc565b91505092959194509250565b6113e0816113bb565b803561041381611485565b600080604083850312156114af576114af600080fd5b60006114bb858561148e565b92505060208301356001600160401b038111156114da576114da600080fd5b6114e6858286016112c2565b9150509250929050565b805b82525050565b6020810161041382846114f0565b60006104136001600160a01b03831661151d565b90565b6001600160a01b031690565b600061041382611506565b600061041382611529565b6114f281611534565b60208101610413828461153f565b60008060006060848603121561156e5761156e600080fd5b600061157a86866113eb565b935050602061158b868287016113eb565b925050604061159c868287016113fc565b9150509250925092565b60006115b461128f84611228565b838152905060208082019084028301858111156115d3576115d3600080fd5b835b8181101561135357806115e888826113fc565b845250602092830192016115d5565b600082601f83011261160b5761160b600080fd5b81356107ce8482602086016115a6565b6000806000806080858703121561163457611634600080fd5b600061164087876113eb565b94505060208501356001600160401b0381111561165f5761165f600080fd5b61166b8782880161135d565b93505060408501356001600160401b0381111561168a5761168a600080fd5b611696878288016115f7565b92505060608501356001600160401b038111156116b5576116b5600080fd5b611479878288016115f7565b6000602082840312156116d6576116d6600080fd5b60006107ce84846113fc565b6000806000606084860312156116fa576116fa600080fd5b600061170686866113eb565b93505060208401356001600160401b0381111561172557611725600080fd5b61158b868287016112c2565b6060810161173f82866114f0565b61174c60208301856114f0565b6107ce60408301846114f0565b8015156114f2565b602081016104138284611759565b60006020828403121561178457611784600080fd5b81356001600160401b0381111561179d5761179d600080fd5b6107ce848285016112c2565b600080604083850312156117bf576117bf600080fd5b60006117cb85856113eb565b92505060206114e6858286016113fc565b6000806000606084860312156117f4576117f4600080fd5b600061180086866113eb565b93505060208401356001600160401b0381111561181f5761181f600080fd5b61182b8682870161135d565b92505060408401356001600160401b0381111561184a5761184a600080fd5b61159c868287016115f7565b60006020828403121561186b5761186b600080fd5b60006107ce84846113eb565b634e487b7160e01b600052603260045260246000fd5b634e487b7160e01b600052601160045260246000fd5b60006000198214156118b7576118b761188d565b5060010190565b60005b838110156118d95781810151838201526020016118c1565b838111156103d45750506000910152565b60006118f4825190565b6119028185602086016118be565b9290920192915050565b600061069f82846118ea565b602e81526000602082017f496e697469616c697a61626c653a20636f6e747261637420697320616c72656181526d191e481a5b9a5d1a585b1a5e995960921b602082015291505b5060400190565b6020808252810161041381611918565b600060ff8216610413565b6114f281611976565b602081016104138284611981565b602c81526000602082017f436f6e74656e74494452656769737472793a20696e76616c696420706172616d81526b32ba32b9103632b733ba341760a11b6020820152915061195f565b6020808252810161041381611998565b60118152600060208201703737b732bc34b9ba32b73a103a37b5b2b760791b815291505b5060200190565b60208082528101610413816119f1565b600082821015611a3e57611a3e61188d565b500390565b80825b6001851115611a8257808604811115611a6157611a6161188d565b6001851615611a6f57908102905b8002611a7b8560011c90565b9450611a46565b94509492505050565b600082611a9a5750600161069f565b81611aa75750600061069f565b8160018114611abd5760028114611ac757611af4565b600191505061069f565b60ff841115611ad857611ad861188d565b8360020a915084821115611aee57611aee61188d565b5061069f565b5060208310610133831016604e8410600b8410161715611b27575081810a83811115611b2257611b2261188d565b61069f565b611b348484846001611a43565b92509050818404811115611b4a57611b4a61188d565b0292915050565b600061069f6000198484611a8b565b602881526000602082017f436f6e74656e74494452656769737472793a206e6f6e6578697374656e7420638152671bdb9d195b9d125960c21b6020820152915061195f565b6020808252810161041381611b60565b6114f2816113bb565b6000611bc8825190565b808452602084019350611bdf8185602086016118be565b601f01601f19169290920192915050565b60408101611bfe8285611bb5565b81810360208301526107ce8184611bbe565b602481526000602082017f436f6e74656e74494452656769737472793a206e6f6e6578697374656e74207481526337b5b2b760e11b6020820152915061195f565b6020808252810161041381611c10565b602381526000602082017f436f6e74656e74494452656769737472793a20636f6e74656e7449642065786981526273747360e81b6020820152915061195f565b6020808252810161041381611c61565b601f81526000602082017f436f6e74656e74494452656769737472793a20696e76616c69642073697a650081529150611a15565b6020808252810161041381611cb1565b602581526000602082017f436f6e74656e74494452656769737472793a20696e76616c696420657870697281526430ba34b7b760d91b6020820152915061195f565b6020808252810161041381611cf5565b60408101611d5582856114f0565b61069f60208301846114f0565b8051610413816113f6565b600060208284031215611d8257611d82600080fd5b60006107ce8484611d62565b60608101611d9c8286611bb5565b61174c6020830185611bb5565b8015156113e0565b805161041381611da9565b600060208284031215611dd157611dd1600080fd5b60006107ce8484611db1565b60808101611deb8287611bb5565b8181036020830152611dfd8186611bbe565b9050611e0c60408301856114f0565b611e1960608301846114f0565b95945050505050565b601f81526000602082017f436f6e74656e74494452656769737472793a20746f6b656e206578697374730081529150611a15565b6020808252810161041381611e22565b60008219821115611e7957611e7961188d565b500190565b600061041361151a8381565b6114f281611e7e565b60408101611ea182856114f0565b61069f6020830184611e8a565b6000816000190483118215151615611ec857611ec861188d565b500290565b634e487b7160e01b600052601260045260246000fd5b600082611ef257611ef2611ecd565b500490565b602581526000602082017f436f6e74656e74494452656769737472793a20696e76616c69642065787472618152642073697a6560d81b6020820152915061195f565b6020808252810161041381611ef756fea26469706673582212204dcdc2423c2721e1ecdbea172236bbb02f9a645219716a52e8df8163fbb30d2164736f6c63430008090033",
  "devdoc": {
    "author": "Alexandas",
    "details": "IPFS content id registry",
    "events": {
      "Remove(address,string)": {
        "details": "emit when ipfs contentId removed",
        "params": {
          "account": "user account",
          "contentId": "ipfs contentId"
        }
      },
      "Upset(address,string,uint256,uint256)": {
        "details": "emit when ipfs contentId inserted or updated",
        "params": {
          "account": "user account",
          "contentId": "ipfs contentId",
          "expiration": "ipfs contentId expiration",
          "size": "ipfs contentId size"
        }
      }
    },
    "kind": "dev",
    "methods": {
      "initialize(address,address,uint256)": {
        "details": "proxy initialize function"
      },
      "insert(address,string,uint256,uint256)": {
        "details": "insert ipfs contentId",
        "params": {
          "contentId": "ipfs contentId",
          "expiration": "of ipfs contentId count",
          "size": "ipfs contentId size",
          "token": "ERC20 token"
        }
      },
      "insertMult(address,string[],uint256[],uint256[])": {
        "details": "insert multiple ipfs contentId for accounts",
        "params": {
          "contentIds": "array of ipfs contentIds",
          "expirations": "array of ipfs contentId expirations",
          "sizes": "array of ipfs contentId size",
          "token": "ERC20 token"
        }
      },
      "remove(string)": {
        "details": "remove ipfs contentId",
        "params": {
          "contentId": "ipfs contentId id"
        }
      },
      "removeMult(string[])": {
        "details": "remove ipfs contentId",
        "params": {
          "contentIds": "array of ipfs contentIds"
        }
      },
      "updateExpiration(address,string,uint256)": {
        "details": "update extra expiration for ipfs contentId",
        "params": {
          "contentId": "ipfs contentId",
          "extraExpiration": "ipfs contentId extra expiration",
          "token": "ERC20 token"
        }
      },
      "updateExpirationMult(address,string[],uint256[])": {
        "details": "update multiple extra expirations for ipfs contentId",
        "params": {
          "contentIds": "array of ipfs contentIds",
          "extraExpirations": "array of ipfs contentId extra expirations",
          "token": "ERC20 token"
        }
      },
      "updateSize(address,string,uint256)": {
        "details": "update extra size for ipfs contentId",
        "params": {
          "contentId": "ipfs contentId",
          "extraSize": "ipfs contentId extra size",
          "token": "ERC20 token"
        }
      },
      "updateSizeMult(address,string[],uint256[])": {
        "details": "insert multiple ipfs contentId for accounts",
        "params": {
          "contentIds": "array of ipfs contentIds",
          "extraSizes": "array of ipfs contentId extra size",
          "token": "ERC20 token"
        }
      }
    },
    "stateVariables": {
      "metas": {
        "details": "ipfs contentId contentId meta"
      }
    },
    "version": 1
  },
  "userdoc": {
    "kind": "user",
    "methods": {},
    "version": 1
  },
  "storageLayout": {
    "storage": [
      {
        "astId": 141,
        "contract": "contracts/ContentIDRegistry.sol:ContentIDRegistry",
        "label": "_initialized",
        "offset": 0,
        "slot": "0",
        "type": "t_uint8"
      },
      {
        "astId": 144,
        "contract": "contracts/ContentIDRegistry.sol:ContentIDRegistry",
        "label": "_initializing",
        "offset": 1,
        "slot": "0",
        "type": "t_bool"
      },
      {
        "astId": 2872,
        "contract": "contracts/ContentIDRegistry.sol:ContentIDRegistry",
        "label": "priceAdaptor",
        "offset": 2,
        "slot": "0",
        "type": "t_contract(IPriceAdaptor)3929"
      },
      {
        "astId": 2876,
        "contract": "contracts/ContentIDRegistry.sol:ContentIDRegistry",
        "label": "tokens",
        "offset": 0,
        "slot": "1",
        "type": "t_array(t_contract(IERC20)3892)dyn_storage"
      },
      {
        "astId": 2881,
        "contract": "contracts/ContentIDRegistry.sol:ContentIDRegistry",
        "label": "tokenDecimals",
        "offset": 0,
        "slot": "2",
        "type": "t_mapping(t_contract(IERC20)3892,t_uint256)"
      },
      {
        "astId": 2889,
        "contract": "contracts/ContentIDRegistry.sol:ContentIDRegistry",
        "label": "metas",
        "offset": 0,
        "slot": "3",
        "type": "t_mapping(t_address,t_mapping(t_string_memory_ptr,t_struct(ContentMeta)2869_storage))"
      }
    ],
    "types": {
      "t_address": {
        "encoding": "inplace",
        "label": "address",
        "numberOfBytes": "20"
      },
      "t_array(t_contract(IERC20)3892)dyn_storage": {
        "base": "t_contract(IERC20)3892",
        "encoding": "dynamic_array",
        "label": "contract IERC20[]",
        "numberOfBytes": "32"
      },
      "t_bool": {
        "encoding": "inplace",
        "label": "bool",
        "numberOfBytes": "1"
      },
      "t_contract(IERC20)3892": {
        "encoding": "inplace",
        "label": "contract IERC20",
        "numberOfBytes": "20"
      },
      "t_contract(IPriceAdaptor)3929": {
        "encoding": "inplace",
        "label": "contract IPriceAdaptor",
        "numberOfBytes": "20"
      },
      "t_mapping(t_address,t_mapping(t_string_memory_ptr,t_struct(ContentMeta)2869_storage))": {
        "encoding": "mapping",
        "key": "t_address",
        "label": "mapping(address => mapping(string => struct ContentIDRegistry.ContentMeta))",
        "numberOfBytes": "32",
        "value": "t_mapping(t_string_memory_ptr,t_struct(ContentMeta)2869_storage)"
      },
      "t_mapping(t_contract(IERC20)3892,t_uint256)": {
        "encoding": "mapping",
        "key": "t_contract(IERC20)3892",
        "label": "mapping(contract IERC20 => uint256)",
        "numberOfBytes": "32",
        "value": "t_uint256"
      },
      "t_mapping(t_string_memory_ptr,t_struct(ContentMeta)2869_storage)": {
        "encoding": "mapping",
        "key": "t_string_memory_ptr",
        "label": "mapping(string => struct ContentIDRegistry.ContentMeta)",
        "numberOfBytes": "32",
        "value": "t_struct(ContentMeta)2869_storage"
      },
      "t_string_memory_ptr": {
        "encoding": "bytes",
        "label": "string",
        "numberOfBytes": "32"
      },
      "t_struct(ContentMeta)2869_storage": {
        "encoding": "inplace",
        "label": "struct ContentIDRegistry.ContentMeta",
        "members": [
          {
            "astId": 2864,
            "contract": "contracts/ContentIDRegistry.sol:ContentIDRegistry",
            "label": "size",
            "offset": 0,
            "slot": "0",
            "type": "t_uint256"
          },
          {
            "astId": 2866,
            "contract": "contracts/ContentIDRegistry.sol:ContentIDRegistry",
            "label": "expiration",
            "offset": 0,
            "slot": "1",
            "type": "t_uint256"
          },
          {
            "astId": 2868,
            "contract": "contracts/ContentIDRegistry.sol:ContentIDRegistry",
            "label": "updateAt",
            "offset": 0,
            "slot": "2",
            "type": "t_uint256"
          }
        ],
        "numberOfBytes": "96"
      },
      "t_uint256": {
        "encoding": "inplace",
        "label": "uint256",
        "numberOfBytes": "32"
      },
      "t_uint8": {
        "encoding": "inplace",
        "label": "uint8",
        "numberOfBytes": "1"
      }
    }
  }
}