{
  "address": "0x499cF45AcaF043a181793e5ad4FFC2626dD354c1",
  "abi": [
    {
      "inputs": [],
      "stateMutability": "nonpayable",
      "type": "constructor"
    },
    {
      "anonymous": false,
      "inputs": [
        {
          "indexed": false,
          "internalType": "uint8",
          "name": "version",
          "type": "uint8"
        }
      ],
      "name": "Initialized",
      "type": "event"
    },
    {
      "anonymous": false,
      "inputs": [
        {
          "indexed": true,
          "internalType": "address",
          "name": "previousOwner",
          "type": "address"
        },
        {
          "indexed": true,
          "internalType": "address",
          "name": "newOwner",
          "type": "address"
        }
      ],
      "name": "OwnershipTransferred",
      "type": "event"
    },
    {
      "anonymous": false,
      "inputs": [
        {
          "indexed": false,
          "internalType": "uint256",
          "name": "_price",
          "type": "uint256"
        }
      ],
      "name": "PriceUpdated",
      "type": "event"
    },
    {
      "inputs": [],
      "name": "decimals",
      "outputs": [
        {
          "internalType": "uint8",
          "name": "",
          "type": "uint8"
        }
      ],
      "stateMutability": "view",
      "type": "function"
    },
    {
      "inputs": [
        {
          "internalType": "uint256",
          "name": "value",
          "type": "uint256"
        },
        {
          "internalType": "uint256",
          "name": "size",
          "type": "uint256"
        }
      ],
      "name": "getExpirationWith",
      "outputs": [
        {
          "internalType": "uint256",
          "name": "",
          "type": "uint256"
        }
      ],
      "stateMutability": "view",
      "type": "function"
    },
    {
      "inputs": [
        {
          "internalType": "uint256",
          "name": "value",
          "type": "uint256"
        },
        {
          "internalType": "uint256",
          "name": "expiration",
          "type": "uint256"
        }
      ],
      "name": "getSizeWith",
      "outputs": [
        {
          "internalType": "uint256",
          "name": "",
          "type": "uint256"
        }
      ],
      "stateMutability": "view",
      "type": "function"
    },
    {
      "inputs": [
        {
          "internalType": "uint256",
          "name": "size",
          "type": "uint256"
        },
        {
          "internalType": "uint256",
          "name": "expiration",
          "type": "uint256"
        }
      ],
      "name": "getValue",
      "outputs": [
        {
          "internalType": "uint256",
          "name": "",
          "type": "uint256"
        }
      ],
      "stateMutability": "view",
      "type": "function"
    },
    {
      "inputs": [
        {
          "internalType": "uint8",
          "name": "tokenDecimals",
          "type": "uint8"
        },
        {
          "internalType": "uint256",
          "name": "size",
          "type": "uint256"
        },
        {
          "internalType": "uint256",
          "name": "expiration",
          "type": "uint256"
        }
      ],
      "name": "getValue",
      "outputs": [
        {
          "internalType": "uint256",
          "name": "value",
          "type": "uint256"
        }
      ],
      "stateMutability": "view",
      "type": "function"
    },
    {
      "inputs": [
        {
          "internalType": "address",
          "name": "owner",
          "type": "address"
        },
        {
          "internalType": "uint256",
          "name": "_price",
          "type": "uint256"
        }
      ],
      "name": "initialize",
      "outputs": [],
      "stateMutability": "nonpayable",
      "type": "function"
    },
    {
      "inputs": [
        {
          "internalType": "uint8",
          "name": "tokenDecimals",
          "type": "uint8"
        },
        {
          "internalType": "uint256",
          "name": "value",
          "type": "uint256"
        }
      ],
      "name": "matchValueToToken",
      "outputs": [
        {
          "internalType": "uint256",
          "name": "",
          "type": "uint256"
        }
      ],
      "stateMutability": "pure",
      "type": "function"
    },
    {
      "inputs": [],
      "name": "owner",
      "outputs": [
        {
          "internalType": "address",
          "name": "",
          "type": "address"
        }
      ],
      "stateMutability": "view",
      "type": "function"
    },
    {
      "inputs": [],
      "name": "price",
      "outputs": [
        {
          "internalType": "uint256",
          "name": "",
          "type": "uint256"
        }
      ],
      "stateMutability": "view",
      "type": "function"
    },
    {
      "inputs": [],
      "name": "renounceOwnership",
      "outputs": [],
      "stateMutability": "nonpayable",
      "type": "function"
    },
    {
      "inputs": [
        {
          "internalType": "uint256",
          "name": "_price",
          "type": "uint256"
        }
      ],
      "name": "setPrice",
      "outputs": [],
      "stateMutability": "nonpayable",
      "type": "function"
    },
    {
      "inputs": [
        {
          "internalType": "address",
          "name": "newOwner",
          "type": "address"
        }
      ],
      "name": "transferOwnership",
      "outputs": [],
      "stateMutability": "nonpayable",
      "type": "function"
    }
  ],
  "transactionHash": "0x5079721c58980d6615ecc6ad30beeaeb94660037dc826d509eae2e578b454f1f",
  "args": [],
  "numDeployments": 1,
  "solcInputHash": "d071c3d93c47b5f9dd2906c9ca7ec79d",
  "bytecode": "0x60a0604052602460805234801561001557600080fd5b50600054610100900460ff16158080156100365750600054600160ff909116105b80610061575061004f306100fa60201b61045b1760201c565b158015610061575060005460ff166001145b6100865760405162461bcd60e51b815260040161007d90610109565b60405180910390fd5b6000805460ff1916600117905580156100a9576000805461ff0019166101001790555b80156100f4576000805461ff00191690556040517f7f26b83ff96e1f2b6a682f133852f6798a09c465da95921460cefb3847402498906100eb9060019061017b565b60405180910390a15b50610189565b6001600160a01b03163b151590565b6020808252810161015b81602e81527f496e697469616c697a61626c653a20636f6e747261637420697320616c72656160208201526d191e481a5b9a5d1a585b1a5e995960921b604082015260600190565b92915050565b600060ff821661015b565b61017581610161565b82525050565b6020810161015b828461016c565b608051610a6c6101b86000396000818160e701528181610374015281816103a701526103ee0152610a6c6000f3fe608060405234801561001057600080fd5b50600436106100b45760003560e01c806391b7f5ed1161007157806391b7f5ed1461014c5780639504c0031461015f578063a035b1fe14610172578063cd6dc6871461017b578063ee0a0af61461018e578063f2fde38b146101a157600080fd5b806312bd28ef146100b957806330bf0313146100b9578063313ce567146100e25780636a19e6de14610116578063715018a6146101295780638da5cb5b14610133575b600080fd5b6100cc6100c7366004610556565b6101b4565b6040516100d9919061059b565b60405180910390f35b6101097f000000000000000000000000000000000000000000000000000000000000000081565b6040516100d991906105b2565b6100cc610124366004610556565b6101d7565b61013161022b565b005b6033546001600160a01b03166040516100d991906105da565b61013161015a3660046105e8565b61023f565b6100cc61016d36600461061d565b610253565b6100cc60655481565b610131610189366004610681565b610273565b6100cc61019c3660046106a3565b61034e565b6101316101af3660046106c5565b610424565b6065546000906101ce906101c8858561046a565b9061046a565b90505b92915050565b6000808311806101e75750600082115b61020c5760405162461bcd60e51b81526004016102039061071d565b60405180910390fd5b6101ce826102258560655461047690919063ffffffff16565b90610476565b610233610482565b61023d60006104ac565b565b610247610482565b610250816104fe565b50565b600061025f83836101d7565b905061026b848261034e565b949350505050565b600054610100900460ff16158080156102935750600054600160ff909116105b806102ad5750303b1580156102ad575060005460ff166001145b6102c95760405162461bcd60e51b81526004016102039061077b565b6000805460ff1916600117905580156102ec576000805461ff0019166101001790555b6102f5836104ac565b6102fe826104fe565b8015610349576000805461ff00191690556040517f7f26b83ff96e1f2b6a682f133852f6798a09c465da95921460cefb3847402498906103409060019061079f565b60405180910390a15b505050565b6000808360ff16116103725760405162461bcd60e51b8152600401610203906107ee565b7f000000000000000000000000000000000000000000000000000000000000000060ff168360ff16106103e5576103de6103cc7f000000000000000000000000000000000000000000000000000000000000000085610814565b6103d790600a610943565b8390610476565b90506101d1565b6101ce610412847f0000000000000000000000000000000000000000000000000000000000000000610814565b61041d90600a610943565b839061046a565b61042c610482565b6001600160a01b0381166104525760405162461bcd60e51b81526004016102039061099b565b610250816104ac565b6001600160a01b03163b151590565b60006101ce82846109c1565b60006101ce82846109d5565b6033546001600160a01b0316331461023d5760405162461bcd60e51b815260040161020390610a26565b603380546001600160a01b038381166001600160a01b0319831681179093556040519116919082907f8be0079c531659141344cd1fd0a4f28419497f9722a3daafe3b4186f6b6457e090600090a35050565b60658190556040517f66cbca4f3c64fecf1dcb9ce094abcf7f68c3450a1d4e3a8e917dd621edb4ebe09061053390839061059b565b60405180910390a150565b805b811461025057600080fd5b80356101d18161053e565b6000806040838503121561056c5761056c600080fd5b6000610578858561054b565b92505060206105898582860161054b565b9150509250929050565b805b82525050565b602081016101d18284610593565b60ff8116610595565b602081016101d182846105a9565b60006001600160a01b0382166101d1565b610595816105c0565b602081016101d182846105d1565b6000602082840312156105fd576105fd600080fd5b600061026b848461054b565b60ff8116610540565b80356101d181610609565b60008060006060848603121561063557610635600080fd5b60006106418686610612565b93505060206106528682870161054b565b92505060406106638682870161054b565b9150509250925092565b610540816105c0565b80356101d18161066d565b6000806040838503121561069757610697600080fd5b60006105788585610676565b600080604083850312156106b9576106b9600080fd5b60006105788585610612565b6000602082840312156106da576106da600080fd5b600061026b8484610676565b601c81526000602082017f507269636541646170746f723a20696e76616c696420706172616d7300000000815291505b5060200190565b602080825281016101d1816106e6565b602e81526000602082017f496e697469616c697a61626c653a20636f6e747261637420697320616c72656181526d191e481a5b9a5d1a585b1a5e995960921b602082015291505b5060400190565b602080825281016101d18161072d565b600060ff82166101d1565b6105958161078b565b602081016101d18284610796565b602481526000602082017f507269636541646170746f723a20696e76616c696420746f6b656e20646563698152636d616c7360e01b60208201529150610774565b602080825281016101d1816107ad565b634e487b7160e01b600052601160045260246000fd5b60ff918216911660008282101561082d5761082d6107fe565b500390565b80825b600185111561087157808604811115610850576108506107fe565b600185161561085e57908102905b800261086a8560011c90565b9450610835565b94509492505050565b6000826108895750600161093c565b816108965750600061093c565b81600181146108ac57600281146108b6576108e3565b600191505061093c565b60ff8411156108c7576108c76107fe565b8360020a9150848211156108dd576108dd6107fe565b5061093c565b5060208310610133831016604e8410600b8410161715610916575081810a83811115610911576109116107fe565b61093c565b6109238484846001610832565b92509050818404811115610939576109396107fe565b81025b9392505050565b600060ff831692506101ce600019848461087a565b602681526000602082017f4f776e61626c653a206e6577206f776e657220697320746865207a65726f206181526564647265737360d01b60208201529150610774565b602080825281016101d181610958565b634e487b7160e01b600052601260045260246000fd5b6000826109d0576109d06109ab565b500490565b60008160001904831182151516156109ef576109ef6107fe565b500290565b60208082527f4f776e61626c653a2063616c6c6572206973206e6f7420746865206f776e657291019081526000610716565b602080825281016101d1816109f456fea26469706673582212205aa7b0f09eb4db90e52cbcc2af30f4b7d99496203f68b2ac9ca852aaa32a4db464736f6c63430008090033",
  "devdoc": {
    "author": "Alexandas",
    "details": "Content price adaptor contract",
    "kind": "dev",
    "methods": {
      "getExpirationWith(uint256,uint256)": {
        "details": "get content expiration",
        "params": {
          "size": "content size",
          "value": "token value in decimals(30)"
        },
        "returns": {
          "_0": "content expiration"
        }
      },
      "getSizeWith(uint256,uint256)": {
        "details": "get content size ",
        "params": {
          "expiration": "content expiration",
          "value": "token value in decimals(30)"
        },
        "returns": {
          "_0": "size content size"
        }
      },
      "getValue(uint256,uint256)": {
        "details": "return cost of content with specific content size and expiration",
        "params": {
          "expiration": "content expiration",
          "size": "content size"
        },
        "returns": {
          "_0": "token value in decimals(30)"
        }
      },
      "initialize(address,uint256)": {
        "details": "proxy initialize function",
        "params": {
          "owner": "contract owner"
        }
      },
      "owner()": {
        "details": "Returns the address of the current owner."
      },
      "renounceOwnership()": {
        "details": "Leaves the contract without owner. It will not be possible to call `onlyOwner` functions anymore. Can only be called by the current owner. NOTE: Renouncing ownership will leave the contract without an owner, thereby removing any functionality that is only available to the owner."
      },
      "setPrice(uint256)": {
        "details": "update price",
        "params": {
          "_price": "price"
        }
      },
      "transferOwnership(address)": {
        "details": "Transfers ownership of the contract to a new account (`newOwner`). Can only be called by the current owner."
      }
    },
    "stateVariables": {
      "price": {
        "details": "return current price"
      }
    },
    "version": 1
  },
  "userdoc": {
    "kind": "user",
    "methods": {},
    "version": 1
  },
  "storageLayout": {
    "storage": [
      {
        "astId": 138,
        "contract": "contracts/PriceAdaptor.sol:PriceAdaptor",
        "label": "_initialized",
        "offset": 0,
        "slot": "0",
        "type": "t_uint8"
      },
      {
        "astId": 141,
        "contract": "contracts/PriceAdaptor.sol:PriceAdaptor",
        "label": "_initializing",
        "offset": 1,
        "slot": "0",
        "type": "t_bool"
      },
      {
        "astId": 566,
        "contract": "contracts/PriceAdaptor.sol:PriceAdaptor",
        "label": "__gap",
        "offset": 0,
        "slot": "1",
        "type": "t_array(t_uint256)50_storage"
      },
      {
        "astId": 10,
        "contract": "contracts/PriceAdaptor.sol:PriceAdaptor",
        "label": "_owner",
        "offset": 0,
        "slot": "51",
        "type": "t_address"
      },
      {
        "astId": 130,
        "contract": "contracts/PriceAdaptor.sol:PriceAdaptor",
        "label": "__gap",
        "offset": 0,
        "slot": "52",
        "type": "t_array(t_uint256)49_storage"
      },
      {
        "astId": 895,
        "contract": "contracts/PriceAdaptor.sol:PriceAdaptor",
        "label": "price",
        "offset": 0,
        "slot": "101",
        "type": "t_uint256"
      }
    ],
    "types": {
      "t_address": {
        "encoding": "inplace",
        "label": "address",
        "numberOfBytes": "20"
      },
      "t_array(t_uint256)49_storage": {
        "base": "t_uint256",
        "encoding": "inplace",
        "label": "uint256[49]",
        "numberOfBytes": "1568"
      },
      "t_array(t_uint256)50_storage": {
        "base": "t_uint256",
        "encoding": "inplace",
        "label": "uint256[50]",
        "numberOfBytes": "1600"
      },
      "t_bool": {
        "encoding": "inplace",
        "label": "bool",
        "numberOfBytes": "1"
      },
      "t_uint256": {
        "encoding": "inplace",
        "label": "uint256",
        "numberOfBytes": "32"
      },
      "t_uint8": {
        "encoding": "inplace",
        "label": "uint8",
        "numberOfBytes": "1"
      }
    }
  }
}